S01D000054726166666963206C6967687420636F6E74726F6C2E73726563EF
S11300000C942A000C9438030C9447000C94470079
S11300100C9447000C9447000C9447000C94470040
S11300200C9447000C9447000C9447000C94470030
S11300300C9447000C9447000C9447000C94470020
S11300400C9447000C9447000C9447000C94470010
S11300500C94470011241FBECFE5D8E0DEBFCDBF0E
S113006010E0A0E6B0E0E6EDFAE002C005900D92E3
S1130070A236B107D9F720E0A2E6B0E001C01D9294
S1130080A336B207E1F70E9447030C9469050C9468
S11300900000823431F118F4813439F00895833446
S11300A0E1F1843409F454C0089541110CC02AB319
S11300B081E090E002C0880F991F6A95E2F780956D
S11300C082238ABB0895413009F05CC02AB381E0E1
S11300D090E002C0880F991F6A95E2F7822B8ABBD1
S11300E0089541110CC027B381E090E002C0880F4D
S11300F0991F6A95E2F78095822387BB0895413062
S113010009F040C027B381E090E002C0880F991F36
S11301106A95E2F7822B87BB089541110CC024B382
S113012081E090E002C0880F991F6A95E2F78095FC
S1130130822384BB0895413029F524B381E090E003
S113014002C0880F991F6A95E2F7822B84BB089539
S113015041110CC021B381E090E002C0880F991FC7
S11301606A95E2F78095822381BB0895413051F46A
S113017021B381E090E002C0880F991F6A95E2F7ED
S1130180822B81BB0895823431F118F4813439F023
S113019008958334E1F1843409F454C0089541117D
S11301A00CC02BB381E090E002C0880F991F6A95C0
S11301B0E2F7809582238BBB0895413009F05CC03F
S11301C02BB381E090E002C0880F991F6A95E2F793
S11301D0822B8BBB089541110CC028B381E090E0C1
S11301E002C0880F991F6A95E2F78095822388BB25
S11301F00895413009F040C028B381E090E002C086
S1130200880F991F6A95E2F7822B88BB08954111E4
S11302100CC025B381E090E002C0880F991F6A9555
S1130220E2F78095822385BB0895413029F525B3F3
S113023081E090E002C0880F991F6A95E2F7822B53
S113024085BB089541110CC022B381E090E002C047
S1130250880F991F6A95E2F78095822382BB0895DF
S1130260413051F422B381E090E002C0880F991F1D
S11302706A95E2F7822B82BB089541E00E9449000F
S1130280089541E00E94C300089540E00E94C30025
S1130290089513BE08958F929F92AF92BF92CF920A
S11302A0DF92EF92FF92CF93DF93BC0183B7846018
S11302B083BF80E090E00E9471046B017C012FE613
S11302C032E143E852E40E94400518167CF52FE61B
S11302D032E143E852E4C701B6010E94D0030E9410
S11302E0B9030E9442044B015C01EB012FE632E1A9
S11302F043E85EE3C701B6010E94D0036B017C01B1
S1130300B40180E090E00E9471049B01AC01C7013C
S1130310B6010E94D0039B01AC0160E070E080E86C
S113032093E40E944C030E94420412C0A701960168
S11303306FE672E183E892E40E944C032FE632E117
S113034043E85EE30E94D0030E944204C1E0D0E08F
S113035062BF20E030E008C008B600FEFDCF88B7D9
S1130360816088BF2F5F3F4F2C173D07A8F313BE52
S1130370DF91CF91FF90EF90DF90CF90BF90AF903F
S11303809F908F90089540E00E944900089560E096
S113039081E40E943D0161E081E40E943D0162E04C
S11303A081E40E943D0160E082E40E943D0161E03D
S11303B082E40E943D0162E082E40E943D010E94C9
S11303C0490162E084E40E94C301789485B78360A4
S11303D085BF8BB780648BBF08951F93CF93DF9342
S11303E080916200882339F090916100923019F075
S11303F0913009F0DDC0813011F48093610060E038
S113040082E40E94450161E082E40E94450162E0C9
S113041082E40E94450180916100813031F008F44A
S113042083C0823009F49FC0BDC0809162008130D6
S113043009F05BC080916000882361F160E082E490
S11304400E94410125C061E081E40E94410161E014
S113045082E40E94410186E891E00E944B0161E040
S113046081E40E94450161E082E40E9445018EEB33
S113047090E00E944B0161E081E40E94410161E04F
S113048082E40E94410186E891E00E944B011F5FD3
S11304901530C8F281E0809360001092610060E042
S11304A081E40E94410124C061E081E40E94410191
S11304B08CE791E00E944B0161E081E40E944501D8
S11304C084EB90E00E944B0161E081E40E944101D1
S11304D08CE791E00E944B0180916200813019F415
S11304E08093600005C0CF5F01C0C0E0C530E0F27A
S11304F061E081E40E94450161E082E40E944501DB
S113050080916000811107C082E08093610081E0E6
S113051080936000A9C0823009F0A6C010926100E7
S113052081E080936000A0C060E081E40E9441010A
S113053061E081E40E94450162E081E40E9445019A
S1130540C0E009C084E490E00E944B018091620005
S1130550813019F0CF5FC233A8F31092600081E0BC
S11305608093610081C062E081E40E94410160E007
S113057081E40E94450161E081E40E94450109C0D3
S113058084E490E00E944B0180916200813019F074
S1130590CF5FC639A8F382E08093600081E0809346
S11305A0610062C01092610081E0809360005CC0D1
S11305B060E082E40E94450161E082E40E9445011A
S11305C062E082E40E94410160E081E40E94410112
S11305D061E081E40E94450162E081E40E944501FA
S11305E088E893E10E944B0160E081E40E944501A8
S11305F025C061E081E40E94410161E082E40E943F
S1130600410186E891E00E944B0161E081E40E948F
S1130610450161E082E40E9445018EEB90E00E9476
S11306204B0161E081E40E94410161E082E40E94A7
S1130630410186E891E00E944B01DF5FD530C8F2AA
S113064061E081E40E94450161E082E40E94450189
S113065060E082E40E9441011092620082E0809393
S1130660610081E080936000DF91CF911F91089534
S11306701F920F920FB60F9211248F9381E08093F3
S113068062008F910F900FBE0F901F9018950E94DB
S1130690C7010E94ED01FDCF5058BB27AA270E9435
S11306A064030C94EE040E94E00438F00E94E70412
S11306B020F039F49F3F19F426F40C94DD040EF471
S11306C0E095E7FB0C94AE04E92F0E94FF0458F375
S11306D0BA17620773078407950720F079F4A6F523
S11306E00C9439050EF4E0950B2EBA2FA02D0B01B6
S11306F0B90190010C01CA01A0011124FF27591B63
S113070099F0593F50F4503E68F11A16F040A22F68
S1130710232F342F4427585FF3CF469537952795D9
S1130720A795F0405395C9F77EF41F16BA0B620BD8
S1130730730B840BBAF09150A1F0FF0FBB1F661F1F
S1130740771F881FC2F70EC0BA0F621F731F841F62
S113075048F4879577956795B795F7959E3F08F088
S1130760B0CF9395880F08F09927EE0F979587954A
S113077008950E94210590F09F3748F4911116F4D2
S11307800C943A0560E070E080E89FE3089526F059
S11307901B16611D711D811D0C94B4040C94CF04AF
S11307A00E94E4030C94EE040E94E70458F00E94B3
S11307B0E00440F029F45F3F29F00C94AE04511199
S11307C00C943A050C94DD040E94FF0468F3992309
S11307D0B1F3552391F3951B550BBB27AA27621739
S11307E07307840738F09F5F5F4F220F331F441F46
S11307F0AA1FA9F335D00E2E3AF0E0E832D091507A
S11308005040E695001CCAF72BD0FE2F29D0660F66
S1130810771F881FBB1F261737074807AB07B0E8A9
S113082009F0BB0B802DBF01FF2793585F4F3AF0AF
S11308309E3F510578F00C94AE040C943A055F3F4A
S1130840E4F3983ED4F3869577956795B795F79535
S11308509F5FC9F7880F911D9695879597F908951D
S1130860E1E0660F771F881FBB1F621773078407B9
S1130870BA0720F0621B730B840BBA0BEE1F88F7C8
S1130880E09508950E94070588F09F5798F0B92FC6
S11308909927B751B0F0E1F0660F771F881F991FB1
S11308A01AF0BA95C9F714C0B13091F00E94390515
S11308B0B1E008950C943905672F782F8827B85F25
S11308C039F0B93FCCF3869577956795B395D9F709
S11308D03EF490958095709561957F4F8F4F9F4F13
S11308E00895E89409C097FB3EF49095809570951F
S11308F061957F4F8F4F9F4F9923A9F0F92F96E968
S1130900BB279395F695879577956795B795F111DC
S1130910F8CFFAF4BB0F11F460FF1BC06F5F7F4F79
S11309208F4F9F4F16C0882311F096E911C077238B
S113093021F09EE8872F762F05C0662371F096E894
S1130940862F70E060E02AF09A95660F771F881F63
S1130950DAF7880F9695879597F9089597F99F6721
S113096080E870E060E00895882371F4772321F033
S11309709850872B762F07C0662311F499270DC052
S11309809051862B70E060E02AF09A95660F771FED
S1130990881FDAF7880F9695879597F908959F3FF2
S11309A031F0915020F4879577956795B795880F26
S11309B0911D9695879597F908959FEF80EC08957A
S11309C000240A941616170618060906089500242A
S11309D00A9412161306140605060895092E0394A4
S11309E0000C11F4882352F0BB0F40F4BF2B11F418
S11309F060FF04C06F5F7F4F8F4F9F4F089557FD77
S1130A009058440F551F59F05F3F71F04795880F78
S1130A1097FB991F61F09F3F79F08795089512160F
S1130A2013061406551FF2CF4695F1DF08C01616BB
S1130A3017061806991FF1CF86957105610508946C
S1130A4008950E940705A0F0BEE7B91788F4BB27F4
S1130A509F3860F41616B11D672F782F8827985F8A
S1130A60F7CF869577956795B11D93959639C8F319
S1130A700895E894BB2766277727CB0197F9089553
S1130A800E94450508F48FEF0895990F0008550F4B
S1130A90AA0BE0E8FEEF16161706E807F907C0F000
S1130AA012161306E407F50798F0621B730B840B08
S1130AB0950B39F40A2661F0232B242B252B21F4E2
S1130AC008950A2609F4A140A6958FEF811D811D82
S1090AD00895F894FFCF25
S1050AD6010217
S9030000FC
